:10000000AFC00000C8C00000C6C00000C4C00000EF
:10001000C2C00000C0C00000BEC00000BCC00000E4
:10002000BAC00000B8C000008BC50000B4C000001A
:10003000B2C00000B0C00000AEC00000ACC0000004
:10004000AAC00000A8C00000A6C00000A4C0000014
:10005000A2C0000092C100009EC000009CC0000031
:100060009AC0000098C0000096C0000094C0000034
:1000700092C0000090C000008EC000008CC0000044
:100080008AC0000088C0000086C0000084C0000054
:1000900082C0000080C000007EC000007CC0000064
:1000A0007AC0000078C0000076C00000090222007B
:1000B000010100C032090400000103000000092111
:1000C000000000012220000705810308000512013D
:1000D000000000000008FAFAF1000000010203012C
:1000E0000600FF0901A1010902150025FF75089509
:1000F0000881020903150025FF750895089102C0C3
:100100001A034C00570056003100520032003000F4
:100110003200340053004D00340000001E035A002A
:10012000420020003200340050006F007200740062
:100130002000440045005600310000001E035A0014
:1001400065006200730062006F006100720064006D
:1001500073002E0063006F006D00000004030904AB
:1001600011241FBECFEFDAE0DEBFCDBF11E0A0E06B
:10017000B1E0E0EBFFE002C005900D92A230B107C4
:10018000D9F721E0A2E0B1E001C01D92AB35B20782
:10019000E1F702D00BC734CF80E885BF85BF94B7A5
:1001A000977F94BF0FB6F894A895909160009861DE
:1001B00090936000109260000FBE90E00FB6F8942C
:1001C00080936100909361000FBE5D98559A5B9893
:1001D000539A5A98529A5998519A5898509A2F98D7
:1001E000279A2B98239A2A98229A2998219A289814
:1001F000209A76986E9A8898809A8998819A8C9895
:10020000849A8D98859A8E98869A47983F9A4698B0
:100210003E9A2E98269A2D98259A2C98249A5F9883
:10022000579A5E98569A5C98549A6DD4F89481E3E4
:1002300087BD16BC82E084BD93E095BD80936E00BF
:100240007894789498D6FECF0895089542E061ECB2
:1002500081E0C6C3CF93DF93CDB7DEB728970FB643
:10026000F894DEBF0FBECDBF80915401813059F0AC
:100270008930F1F028960FB6F894DEBF0FBECDBFDF
:10028000DF91CF91089580915301813A99F7809140
:10029000E800877F8093E800198261E070E0CE017A
:1002A0000196A4D28091E8008B778093E800E2CF9A
:1002B000809153018132F1F68091E800877F80932D
:1002C000E80068E070E0CE010196EFD28091E8008E
:1002D0008E778093E8008981803471F5DE01129673
:1002E00090E080E04D9130E020E0FC01E20FF31F50
:1002F000542F5170EE0FFF1FE25EFE4F5083469564
:100300002F5F3F4F2830310581F7089688319105DE
:1003100049F78E81883070F4811101C081E020E8B6
:10032000829FC001112490930101809300011092DB
:100330001D01A0CF87E0F3CF80911D018330C4F46D
:1003400098E0890290011124AE01475F5F4FFE01E2
:1003500031962E1B3F0BD901AE0FBF1F9191AA0FF3
:10036000BB1FA25EBE4F11969C93E417F50799F749
:100370008F5F837080931D017DCF1F920F920FB608
:100380000F9211242F933F934F935F936F937F931B
:100390008F939F93AF93BF93CF93EF93FF938091EE
:1003A0001C01815087FD10C080931C012091020127
:1003B00080911C01082E000C990B2817190611F0CA
:1003C0000CF061C05D9860C060E360931C012091F7
:1003D00000013091010180911A0190911B01280FB9
:1003E000391F30931B0120931A01832F9927689F8F
:1003F000A001699F500D1124C52F4FEF50E0481BFD
:10040000590B649FF001659FF00D11247F2F37FF7A
:1004100060E087FDCA0140E3489F9001499F300D8D
:100420001124220F232F221F330B3195922FE2E04C
:10043000F1E030E020E0D901AA0FBB1FA25EBE4F61
:100440008C91811108C010822F5F3F4F3196283167
:10045000310589F7ABCF11968C91813310F48083ED
:10046000F3CF813811F49083EFCF823811F4608399
:10047000EBCF833811F47083E7CF843811F4C08355
:10048000E3CF4083E1CF5D9A2091030180911C016D
:10049000082E000C990B2817190609F00CF431C12D
:1004A0005B9A2091040180911C01082E000C990B8D
:1004B0002817190609F00CF426C15A9A2091050153
:1004C00080911C01082E000C990B2817190609F0C1
:1004D0000CF41BC1599A2091060180911C01082E31
:1004E000000C990B2817190609F00CF410C1589A42
:1004F0002091070180911C01082E000C990B2817F0
:10050000190609F00CF405C12F9A20910801809179
:100510001C01082E000C990B2817190609F00CF481
:10052000FAC02B9A2091090180911C01082E000C21
:10053000990B2817190609F00CF4EFC02A9A20919C
:100540000A0180911C01082E000C990B281719062E
:1005500009F00CF4E4C0299A20910B0180911C0150
:10056000082E000C990B2817190609F00CF4D9C0B5
:10057000289A20910C0180911C01082E000C990BE7
:100580002817190609F00CF4CEC0769A20910D01B7
:1005900080911C01082E000C990B2817190609F0F0
:1005A0000CF4C3C0889A20910E0180911C01082E82
:1005B000000C990B2817190609F00CF4B8C0899A99
:1005C00020910F0180911C01082E000C990B281717
:1005D000190609F00CF4ADC08C9A2091100180919D
:1005E0001C01082E000C990B2817190609F00CF4B1
:1005F000A2C08D9A2091110180911C01082E000C3F
:10060000990B2817190609F00CF497C08E9A2091BF
:10061000120180911C01082E000C990B2817190655
:1006200009F00CF48CC0479A2091130180911C01B1
:10063000082E000C990B2817190609F00CF481C03C
:10064000469A2091140180911C01082E000C990BF0
:100650002817190609F00CF476C02E9A209115017E
:1006600080911C01082E000C990B2817190609F01F
:100670000CF46BC02D9A2091160180911C01082E5C
:10068000000C990B2817190609F00CF460C02C9A7D
:100690002091170180911C01082E000C990B28173E
:1006A000190609F00CF455C05F9A20911801809149
:1006B0001C01082E000C990B2817190609F00CF4E0
:1006C0004AC05E9A2091190180911C01082E000CED
:1006D000990B2817190609F00CF43FC05C9AFF919A
:1006E000EF91CF91BF91AF919F918F917F916F913A
:1006F0005F914F913F912F910F900FBE0F901F90E0
:1007000018955B98CECE5A98D9CE5998E4CE589881
:10071000EFCE2F98FACE2B9805CF2A9810CF299894
:100720001BCF289826CF769831CF88983CCF8998D0
:1007300047CF8C9852CF8D985DCF8E9868CF4798D1
:1007400073CF46987ECF2E9889CF2D9894CF2C9832
:100750009FCF5F98AACF5E98B5CF5C98C0CF292F66
:1007600033272330310521F158F42130310599F038
:1007700022303105C1F090E080E030E020E00FC091
:100780002132310571F122323105A9F780E290E082
:1007900020EE30E004C082E190E02EEC30E0FA017F
:1007A00031832083089582E290E02CEA30E0F7CF95
:1007B00099278130910579F040F08230910571F0F0
:1007C0000397C9F6E0E0F1E002C0ECE5F1E08491C6
:1007D00090E09F01E4CFECE3F1E0F9CFECE1F1E050
:1007E000F6CF89E090E02EEB30E0D9CFFC0180918C
:1007F000590190915A0186179707A0F0611571056C
:1008000029F49091E8009E779093E80090E06115BC
:10081000710551F4911108C08091E80082FF35C044
:1008200080E00895BC01F2CF809152018823C9F184
:100830008530C9F18091E80083FD31C08091E800E6
:1008400082FDEACF8091E80080FFE1CF2091F300A4
:100850008091F200322F282F6115710519F0283090
:10086000310558F091E02830310509F090E02091F1
:10087000E8002E772093E800CACF81918093F100A1
:10088000615071092F5F3F4FE7CF8091520188235C
:1008900041F0853041F08091E80083FFBDCF81E0D9
:1008A000089582E0089583E00895FC0161157105C3
:1008B00029F49091E8009B779093E8006115710509
:1008C00031F48091E80080FF1FC080E0089580919E
:1008D0005201882319F18530E9F08091E80083FD09
:1008E0001BC08091E80082FFE9CF2091F300809146
:1008F000F200322F282F232BE1F28091F100819317
:100900006150710991F7D5CF80915201882331F060
:100910008530B9F683E0089581E0089582E0089576
:10092000FC018091590190915A0186179707A0F018
:100930006115710529F48091E8008E778093E800B5
:1009400090E06115710551F4911108C08091E800A3
:1009500082FF36C080E00895BC01F2CF8091520141
:100960008823D1F18530D1F18091E80083FD32C038
:100970008091E80082FDEACF8091E80080FFE1CF1E
:100980002091F3008091F200322F282F611571051C
:1009900019F02830310558F091E02830310509F080
:1009A00090E08091E8008E778093E800CACF849130
:1009B0008093F1003196615071092F5F3F4FE6CF70
:1009C00080915201882341F0853041F08091E80008
:1009D00083FFBCCF81E0089582E0089583E008950D
:1009E000982F973028F08F708093E90081E0089568
:1009F0009093E900242F762F50E0981731F07091F2
:100A0000EC002091ED005091F00021FD02C09F5FAD
:100A1000E8CF3091EB003E7F3093EB003091ED005A
:100A20003D7F3093ED003091EB0031603093EB006F
:100A30007093EC002093ED005093F0002091EE00B5
:100A400027FDE5CF80E008958091530187FF13C013
:100A50008091E80082FF06C08091E8008B77809348
:100A6000E80004C0809152018111F2CF0895809175
:100A700052018823D9F38091E80080FFF8CF80915C
:100A8000E8008E77ECCF0F931F93CF93DF934BD07B
:100A900052D0C8EDD0E088818F77888388818068C4
:100AA000888388818F7D888319BC109252011092AF
:100AB0004E011092500110924F0100EE10E0F8012B
:100AC00080818B7F808388818160888342E060E0C1
:100AD00080E086DFE1EEF0E080818E7F8083E2EED1
:100AE000F0E0808181608083808188608083F8016C
:100AF00080818E7F8083888180618883DF91CF9120
:100B00001F910F910895E8EDF0E080818F7E808342
:100B1000E7EDF0E080818160808384E082BF81E046
:100B200080935101B0CFE8EDF0E080818E7F80832B
:100B30001092E20008951092DA001092E1000895F8
:100B40001F920F920FB60F9211242F933F934F9342
:100B50005F936F937F938F939F93AF93BF93EF9325
:100B6000FF938091E10082FF0AC08091E20082FF42
:100B700006C08091E1008B7F8093E100FBD18091E2
:100B8000DA0080FF18C08091D80080FF14C08091E7
:100B9000DA008E7F8093DA008091D90080FF8AC0CE
:100BA00080E189BD82E189BD09B400FEFDCF81E00D
:100BB0008093520149DB8091E10080FF18C0809151
:100BC000E20080FF14C08091E2008E7F8093E200FB
:100BD0008091E20080618093E2008091D800806281
:100BE0008093D80019BC85E080935201C3D18091D5
:100BF000E10084FF28C08091E20084FF24C080E1EE
:100C000089BD82E189BD09B400FEFDCF8091D80085
:100C10008F7D8093D8008091E1008F7E8093E100EA
:100C20008091E2008F7E8093E2008091E2008160FB
:100C30008093E20080914E01882309F440C084E053
:100C40008093520197D18091E10083FF22C080916F
:100C5000E20083FF1EC08091E100877F8093E10066
:100C600082E08093520110924E018091E1008E7FCC
:100C70008093E1008091E2008E7F8093E20080917A
:100C8000E20080618093E20042E060E080E0A8DE64
:100C900071D1FF91EF91BF91AF919F918F917F9112
:100CA0006F915F914F913F912F910F900FBE0F90D9
:100CB0001F90189519BC10925201C7DA7CCF809111
:100CC000E30087FD02C081E0BBCF83E0B9CF1F9373
:100CD000CF93DF93CDB7DEB7AA970FB6F894DEBFF8
:100CE0000FBECDBFE3E5F1E08091F100819321E0FB
:100CF000EB35F207C9F7AEDA8091E80083FF10C048
:100D00008091530190915401953009F4D2C000F5BF
:100D1000913009F488C008F461C0933009F483C0AD
:100D20008091E80083FF0AC08091E800877F80936C
:100D3000E8008091EB0080628093EB00AA960FB6EA
:100D4000F894DEBF0FBECDBFDF91CF911F91089504
:100D5000983009F4E4C0993009F4EEC0963001F7F8
:100D600080588230E8F680915501909156018C3D73
:100D700023E0920709F0C0C083E08A838AE2898376
:100D80004FB7F894DE01139620E03EE051E2E32FE6
:100D9000F0E050935700E49120FF03C0E295EF701C
:100DA0003F5FEF708E2F90E0EA3008F4A3C0C79643
:100DB0008D939D932F5F243151F74FBF8091E800B1
:100DC000877F8093E8006AE270E0CE0101960EDD35
:100DD0008091E8008B778093E800A2CF803881F083
:100DE000823809F09DCF809157018F708093E90080
:100DF0008091EB0085FB882780F91092E90006C0FE
:100E000080914F0190915001911182609091E80082
:100E1000977F9093E8008093F1001092F100809109
:100E2000E8008E772FC0282F2D7F09F079CF8823F7
:100E3000D1F0823009F074CF8091550181111DC02D
:100E4000809157018F7009F46BCF8093E900209156
:100E5000EB0020FF12C09330C9F48091EB00806258
:100E60008093EB000AC080915501813009F058CF82
:100E7000933009F080E0809350011092E900809156
:100E8000E800877F8093E800DFDD4ACF9091EB0098
:100E900090619093EB0021E030E001C0220F8A9531
:100EA000EAF72093EA001092EA008091EB00886054
:100EB000D7CF811135CF109155011F778091E30075
:100EC0008078812B8093E3008091E800877F809376
:100ED000E800BADD8091E80080FFFCCF8091E3005C
:100EE00080688093E30083E0111101C082E0809369
:100EF000520116CFC0965CCFAE014F5F5F4F60913D
:100F000057012DDCBC01892B09F40ACF9091E80030
:100F1000977F9093E80089819A8102DD59CF8038CC
:100F200009F0FECE8091E800877F8093E8008091F1
:100F30004E018093F10073CF8111F2CE9091550153
:100F4000923008F0EDCE8091E800877F8093E80032
:100F500090934E0179DD80914E01882329F084E041
:100F60008093520173D9DCCE8091E30087FDF7CFE7
:100F700081E0F6CF0895CF9380915201882391F0BC
:100F8000C091E900CF708091EC0080FD0DC080E041
:100F9000C82B1092E9008091E80083FD98DECF70A5
:100FA000C093E900CF91089580E8F2CFF894FFCF85
:020FB00000013E
:00000001FF
