:10000000B6C00000CFC00000CDC00000CBC00000D3
:10001000C9C00000C7C00000C5C00000C3C00000C8
:10002000C1C00000BFC000005DC50000BBC0000033
:10003000B9C00000B7C00000B5C00000B3C00000E8
:10004000B1C00000AFC00000ADC00000ABC00000F8
:10005000A9C00000AAC00000A5C00000A3C0000005
:10006000A1C000009FC000009DC000009BC0000018
:1000700099C0000097C0000095C0000093C0000028
:1000800091C000008FC000008DC000008BC0000038
:1000900089C0000087C0000085C0000083C0000048
:1000A00081C000007FC000007DC00000040309047F
:1000B0001E035A0065006200730062006F00610059
:1000C0007200640073002E0063006F006D0000007A
:1000D0002E035A00420020004C00690067006800AF
:1000E000740069006E006700200042006F0061002C
:1000F00072006400200044004500560031000000FA
:1001000018035A00420056003100520032004C00E1
:100110004F0042004400310000000600FF0901A129
:10012000010902150025FF750895088102090315CC
:100130000025FF750895089102C01201000000001B
:100140000008A020F00000000102030109022200C3
:10015000010100C032090400000103000000092170
:10016000000000012220000705810308000511247A
:100170001FBECFEFDAE0DEBFCDBF11E0A0E0B1E0FF
:10018000E0E7FFE002C005900D92A230B107D9F779
:1001900011E0A2E0B1E001C01D92AA35B107E1F77C
:1001A00034D2E4C62DCF089508951F920F920FB652
:1001B0000F9211249F92AF92BF92CF92DF92EF9253
:1001C000FF920F931F932F933F934F935F936F93E0
:1001D0007F938F939F93AF93BF93CF93DF93EF93CF
:1001E000FF9380911B01815080931B0187FF71C099
:1001F00080E380931B016091000170910101809167
:10020000190190911A01680F791F70931A01609378
:100210001901072F1127A0E8EA2EF12CE022F12284
:10022000CFEFD0E0C01BD10B20E330E0C29FC00174
:10023000C39F900DD29F900D1124A92E029FC00143
:10024000039F900D129F900D1124B92EA2E0B1E0F2
:1002500040E050E0F0E39F2EE0E3CE2ED12CFA01F7
:10026000EE0FFF1FE35EFE4F8081882311F41C9286
:100270002AC081818133A0F08138A1F4E114F10416
:1002800011F4980101C09E012C9DC0012D9D900D7F
:100290003C9D900D1124880F892F881F990B9195F3
:1002A0008C9311C0823831F477FD02C080E0F8CF22
:1002B00080E3F6CF833811F4AC9205C0843811F492
:1002C000BC9201C09C924F5F5F4F11964731510520
:1002D00031F680911B01282F332727FD309580911F
:1002E000020190E02817390714F4769A01C0769835
:1002F0008091030190E02817390714F4289A01C06F
:1003000028988091040190E02817390714F4299A5D
:1003100001C029988091050190E02817390714F44D
:100320002A9A01C02A988091060190E0281739077F
:1003300014F42B9A01C02B988091070190E02817A4
:10034000390714F4889A01C088988091080190E0D8
:100350002817390714F4899A01C0899880910901F6
:1003600090E02817390714F48C9A01C08C9880917A
:100370000A0190E02817390714F48D9A01C08D986E
:1003800080910B0190E02817390714F48E9A01C070
:100390008E9880910C0190E02817390714F48F9AF9
:1003A00001C08F9880910D0190E02817390714F44F
:1003B000479A01C0479880910E0190E028173907AD
:1003C00014F4469A01C0469880910F0190E02817D6
:1003D000390714F42E9A01C02E988091100190E0F4
:1003E0002817390714F42D9A01C02D988091110116
:1003F00090E02817390714F42C9A01C02C988091AA
:10040000120190E02817390714F45F9A01C05F9831
:100410008091130190E02817390714F45E9A01C007
:100420005E988091140190E02817390714F45C9AC3
:1004300001C05C988091150190E02817390714F4E9
:100440005D9A01C05D988091160190E028173907E8
:1004500014F45B9A01C05B988091170190E0281713
:10046000390714F45A9A01C05A988091180190E003
:100470002817390714F4599A01C05998FF91EF9140
:10048000DF91CF91BF91AF919F918F917F916F91AC
:100490005F914F913F912F911F910F91FF90EF909E
:1004A000DF90CF90BF90AF909F900F900FBE0F90B6
:1004B0001F9018950F931F93DF93CF93CDB7DEB79F
:1004C00029970FB6F894DEBF0FBECDBF80915301C0
:1004D000813021F0893009F089C016C08091520125
:1004E000813A09F083C08091E800877F8093E8001B
:1004F0001982CE01019661E070E01FD18091E80081
:100500008B778093E80072C080915201813209F0AC
:100510006DC08091E800877F8093E8008E010E5FB8
:100520001F4FC80168E070E072D18091E8008E77BB
:100530008093E8008A818034A9F5DE01139640E0BB
:1005400050E0BE016A5F7F4F9C9120E030E0F901EE
:10055000E40FF51F892F8170EE0FFF1FE35EFE4F42
:10056000808396952F5F3F4F2830310581F7119694
:10057000485F5F4FA617B70739F78F81883010F0B3
:1005800087E003C0882309F481E090E09695982FD6
:100590008827979587959093010180930001109289
:1005A0001C0124C060911C016330E4F4462F5527E0
:1005B00047FD509523E0440F551F2A95E1F720E0B1
:1005C00030E0F901E40FF51FD801A20FB31F8C91A1
:1005D000EE0FFF1FE35EFE4F81832F5F3F4F2830FA
:1005E000310579F76F5F637060931C0129960FB630
:1005F000F894DEBF0FBECDBFCF91DF911F910F9159
:10060000089581E061EC42E0B3C184B7877F84BF85
:1006100088E10FB6F89480936000109260000FBEDE
:1006200020E825BF25BF80E090E00FB6F894209326
:100630006100809361000FBE76986E9A2898209A88
:100640002998219A2A98229A2B98239A8898809AF6
:100650008998819A8C98849A8D98859A8E98869A92
:100660008F98879A47983F9A46983E9A2E98269A4E
:100670002D98259A2C98249A5F98579A5E98569AA6
:100680005C98549A5D98559A5B98539A5A98529AE6
:100690005998519A0AD2F89481E387BD16BC92E02A
:1006A00094BD83E085BD90936E007894789449D48E
:1006B000FECFDA019330B1F0943028F4913041F05C
:1006C000923099F50AC0913231F1923271F528C019
:1006D000EAE3F1E022E130E02CC0ECE4F1E022E2D8
:1006E00030E027C0813059F0813028F0823069F045
:1006F0008330D9F40DC0ECEAF0E0849103C0E0EB64
:10070000F0E08491282F30E014C0E0EDF0E0F9CF64
:10071000E0E0F1E0F6CFEEE5F1E029E030E009C0FD
:10072000EAE1F1E020E230E004C0E0E0F0E020E0C7
:1007300030E0ED93FC93C90108959C01409158016C
:10074000509159014617570718F4F90190E043C03A
:100750006115710511F0AB01F8CF8091E8008E773B
:100760008093E80040E050E0F0CF80915101882371
:1007700009F447C0853009F446C08091E80083FD44
:1007800044C08091E80082FD36C08091E80080FF7F
:1007900022C08091F3009091F200782F60E0292F21
:1007A00030E0262B372B07C081918093F100415018
:1007B00050402F5F3F4F4115510519F0283031054A
:1007C00098F390E02830310509F491E08091E80039
:1007D0008E778093E8004115510539F6992329F663
:1007E0000AC080915101882361F0853061F08091C9
:1007F000E80083FD0AC08091E80082FFF2CF80E02C
:10080000089582E0089583E0089581E008959C01B1
:100810006115710529F48091E8008B778093E800D9
:10082000F90127C080915101882399F1853099F110
:100830008091E80083FF02C081E008958091E80084
:1008400082FFF0CF06C08091F1008193615070402B
:1008500059F02091F3008091F200322F20E090E0D7
:10086000822B932B892B79F78091E8008B778093EB
:10087000E80061157105B1F606C080915101882329
:1008800041F0853041F08091E80080FFF6CF80E0B4
:10089000089582E0089583E008959C0140915801F5
:1008A000509159014617570718F4F90190E044C0D8
:1008B0006115710511F0AB01F8CF8091E8008E77DA
:1008C0008093E80040E050E0F0CF80915101882310
:1008D00009F448C0853009F447C08091E80083FDE1
:1008E00045C08091E80082FD37C08091E80080FF1C
:1008F00023C08091F3009091F200782F60E0292FBF
:1009000030E0262B372B08C084918093F10031967C
:10091000415050402F5F3F4F4115510519F028308D
:10092000310590F390E02830310509F491E0809191
:10093000E8008E778093E8004115510531F6992340
:1009400021F60AC080915101882361F0853061F061
:100950008091E80083FD0AC08091E80082FFF2CF19
:1009600080E0089582E0089583E0089581E008958D
:10097000382F282F2EC0822F8F708093E9002317E5
:1009800021F4762F942F50E006C07091EC009091E6
:10099000ED005091F00091FF1BC08091EB008E7F25
:1009A0008093EB008091ED008D7F8093ED0080912E
:1009B000EB0081608093EB007093EC009093ED006E
:1009C0005093F0008091EE0087FD02C080E0089512
:1009D0002F5F273080F23F703093E90081E0089567
:1009E0008091520188239CF404C080915101882396
:1009F000B9F08091E80082FFF8CF8091E8008B7712
:100A00008093E800089580915101882349F08091F6
:100A1000E80080FFF8CF8091E8008E778093E800AF
:100A20000895EF92FF920F931F934FD056D008ED89
:100A300010E0F80180818F778083808180688083D7
:100A400080818F7D808319BC1092510110924D01DD
:100A500010924F0110924E0180EEE82EF12CF7011A
:100A600080818B7F8083F80180818160808380E03A
:100A700060E042E07DDFE1EEF0E080818E7F808308
:100A8000E2EEF0E0808181608083808188608083F5
:100A9000F70180818E7F8083F8018081806180836F
:100AA0001F910F91FF90EF900895E8EDF0E08081A5
:100AB0008F7E8083E7EDF0E080818160808384E039
:100AC00082BF81E080935001ACCFE8EDF0E08081FF
:100AD0008E7F80831092E20008951092DA001092C7
:100AE000E10008951F920F920FB60F9211242F93D9
:100AF0003F934F935F936F937F938F939F93AF93A6
:100B0000BF93EF93FF938091E10082FF0AC0809131
:100B1000E20082FF06C08091E1008B7F8093E100BC
:100B20000FD28091DA0080FF1DC08091D80080FF35
:100B300019C08091DA008E7F8093DA008091D9000D
:100B400080FF0CC080E189BD82E189BD09B400FE4F
:100B5000FDCF81E08093510126DB04C019BC1092C7
:100B6000510122DB8091E10080FF18C08091E200FA
:100B700080FF14C08091E2008E7F8093E20080911C
:100B8000E20080618093E2008091D80080628093CF
:100B9000D80019BC85E080935101D2D18091E10049
:100BA00084FF2FC08091E20084FF2BC080E189BDCB
:100BB00082E189BD09B400FEFDCF8091D8008F7D10
:100BC0008093D8008091E1008F7E8093E100809136
:100BD000E2008F7E8093E2008091E200816080934A
:100BE000E20080914D01882311F084E007C08091DC
:100BF000E30087FD02C081E001C083E080935101E2
:100C00009FD18091E10083FF22C08091E20083FFA9
:100C10001EC08091E100877F8093E10082E0809395
:100C2000510110924D018091E1008E7F8093E1008F
:100C30008091E2008E7F8093E2008091E2008061EB
:100C40008093E20080E060E042E092DE79D1FF91A3
:100C5000EF91BF91AF919F918F917F916F915F9134
:100C60004F913F912F910F900FBE0F901F901895AD
:100C70001F93DF93CF93CDB7DEB7AC970FB6F89441
:100C8000DEBF0FBECDBFE2E5F1E08091F1008193C0
:100C900021E0EA35F207C9F70DDC8091E80083FF17
:100CA00037C18091520130915301353009F487C02A
:100CB000363040F43130C9F1313070F0333009F062
:100CC00027C133C0383009F4F5C0393009F404C104
:100CD000363009F01DC196C0803821F0823809F005
:100CE00017C108C090914E0180914F01882399F05F
:100CF000926011C0809156018F708093E9008091BD
:100D0000EB0090E025E0969587952A95E1F7982FDE
:100D100091701092E9008091E800877F8093E8004D
:100D20009093F1001092F100D0C0882319F0823026
:100D300009F0EEC090E08F719070009721F002975B
:100D400009F0E6C00CC080915401813009F0E0C088
:100D500010924F01333069F580934F012AC0809182
:100D60005401882331F5209156012F7009F4D0C029
:100D70002093E9008091EB0080FF1BC0333021F409
:100D80008091EB00806213C08091EB0080618093C2
:100D9000EB0081E090E002C0880F991F2A95E2F7EE
:100DA0008093EA001092EA008091EB0088608093C3
:100DB000EB001092E9008091E800877F89C08823CA
:100DC00009F0A6C0109154011F778091E30080784C
:100DD000812B8093E3008091E800877F8093E80077
:100DE000FFDD8091E80080FFFCCF8091E300806808
:100DF0008093E300112311F482E001C083E080932B
:100E0000510186C08058823008F082C08091540120
:100E10009091550123E08C3D920709F033C083E0A7
:100E20008C838AE28B837FB7F894DE0115966EE09F
:100E300040E050E011E2E62FF0E01093570084917B
:100E400040FF03C082958F706F5F8F70282F30E056
:100E50008A3018F0C901C79602C0C901C0968D93A7
:100E60009D934F5F5F4F4431510529F77FBF8091BC
:100E7000E800877F8093E800CE0103966AE270E085
:100E80005CDC12C060915601AE014F5F5F4F11DC18
:100E9000BC01009709F43CC08091E800877F8093F3
:100EA000E80089819A81F9DC8091E8008B77809352
:100EB000E8002EC0803861F58091E800877F80933C
:100EC000E80080914D018093F1008091E8008E77D9
:100ED0008093E80085DD1CC08823D1F490915401F3
:100EE0009230B0F48091E800877F8093E80090937F
:100EF0004D0176DD80914D01882331F48091E3002E
:100F000087FD02C081E001C084E08093510179DB5C
:100F10008091E80083FF0AC08091E800877F80937A
:100F2000E8008091EB0080628093EB00AC960FB6F6
:100F3000F894DEBF0FBECDBFCF91DF911F91089512
:100F400008951F9380915101882371F01091E90059
:100F50008091EC001092E9008091E80083FF01C0CD
:100F600087DE1F701093E9001F910895F894FFCF5A
:020F700000017E
:00000001FF
